{
  "contractName": "RentableObjects",
  "abi": [
    {
      "inputs": [],
      "payable": false,
      "stateMutability": "nonpayable",
      "type": "constructor",
      "signature": "constructor"
    },
    {
      "constant": false,
      "inputs": [
        {
          "name": "_objId",
          "type": "uint256"
        },
        {
          "name": "_deposit",
          "type": "uint256"
        },
        {
          "name": "_pricePerDay",
          "type": "uint256"
        },
        {
          "name": "_descr",
          "type": "string"
        }
      ],
      "name": "registerObject",
      "outputs": [
        {
          "name": "",
          "type": "bool"
        }
      ],
      "payable": false,
      "stateMutability": "nonpayable",
      "type": "function",
      "signature": "0x12c555de"
    },
    {
      "constant": false,
      "inputs": [
        {
          "name": "_objId",
          "type": "uint256"
        }
      ],
      "name": "unregisterObject",
      "outputs": [
        {
          "name": "",
          "type": "bool"
        }
      ],
      "payable": false,
      "stateMutability": "nonpayable",
      "type": "function",
      "signature": "0xdf058b7c"
    },
    {
      "constant": false,
      "inputs": [
        {
          "name": "_objId",
          "type": "uint256"
        }
      ],
      "name": "rentObject",
      "outputs": [
        {
          "name": "",
          "type": "bool"
        }
      ],
      "payable": true,
      "stateMutability": "payable",
      "type": "function",
      "signature": "0xefa8c897"
    },
    {
      "constant": false,
      "inputs": [
        {
          "name": "_objId",
          "type": "uint256"
        }
      ],
      "name": "reclaimObject",
      "outputs": [
        {
          "name": "",
          "type": "bool"
        }
      ],
      "payable": false,
      "stateMutability": "nonpayable",
      "type": "function",
      "signature": "0xdabfd379"
    },
    {
      "constant": true,
      "inputs": [
        {
          "name": "_objId",
          "type": "uint256"
        }
      ],
      "name": "objectIsRegistered",
      "outputs": [
        {
          "name": "",
          "type": "bool"
        }
      ],
      "payable": false,
      "stateMutability": "view",
      "type": "function",
      "signature": "0x89bfa221"
    },
    {
      "constant": true,
      "inputs": [
        {
          "name": "_objId",
          "type": "uint256"
        }
      ],
      "name": "objectIsRented",
      "outputs": [
        {
          "name": "",
          "type": "bool"
        }
      ],
      "payable": false,
      "stateMutability": "view",
      "type": "function",
      "signature": "0x39856060"
    },
    {
      "constant": true,
      "inputs": [
        {
          "name": "_objId",
          "type": "uint256"
        }
      ],
      "name": "getReturnDeposit",
      "outputs": [
        {
          "name": "",
          "type": "uint256"
        }
      ],
      "payable": false,
      "stateMutability": "view",
      "type": "function",
      "signature": "0x34f0099e"
    },
    {
      "constant": true,
      "inputs": [
        {
          "name": "_objId",
          "type": "uint256"
        }
      ],
      "name": "getObjectDeposit",
      "outputs": [
        {
          "name": "",
          "type": "uint256"
        }
      ],
      "payable": false,
      "stateMutability": "view",
      "type": "function",
      "signature": "0xdce37ddb"
    },
    {
      "constant": true,
      "inputs": [
        {
          "name": "_objId",
          "type": "uint256"
        }
      ],
      "name": "getObjectPricePerDay",
      "outputs": [
        {
          "name": "",
          "type": "uint256"
        }
      ],
      "payable": false,
      "stateMutability": "view",
      "type": "function",
      "signature": "0x2b37292a"
    },
    {
      "constant": true,
      "inputs": [
        {
          "name": "_objId",
          "type": "uint256"
        }
      ],
      "name": "getObjectDescription",
      "outputs": [
        {
          "name": "",
          "type": "string"
        }
      ],
      "payable": false,
      "stateMutability": "view",
      "type": "function",
      "signature": "0x415b78c2"
    },
    {
      "constant": true,
      "inputs": [
        {
          "name": "_objId",
          "type": "uint256"
        }
      ],
      "name": "getObjectClientExists",
      "outputs": [
        {
          "name": "",
          "type": "bool"
        }
      ],
      "payable": false,
      "stateMutability": "view",
      "type": "function",
      "signature": "0xdcf10dc3"
    },
    {
      "constant": true,
      "inputs": [
        {
          "name": "_objId",
          "type": "uint256"
        }
      ],
      "name": "getObjectClientTime",
      "outputs": [
        {
          "name": "",
          "type": "uint256"
        }
      ],
      "payable": false,
      "stateMutability": "view",
      "type": "function",
      "signature": "0xb158db55"
    },
    {
      "constant": true,
      "inputs": [
        {
          "name": "_objId",
          "type": "uint256"
        }
      ],
      "name": "getObjectClientAddress",
      "outputs": [
        {
          "name": "",
          "type": "address"
        }
      ],
      "payable": false,
      "stateMutability": "view",
      "type": "function",
      "signature": "0xd02d2a79"
    },
    {
      "constant": true,
      "inputs": [
        {
          "name": "_objId",
          "type": "uint256"
        }
      ],
      "name": "getObjectOwnerAddress",
      "outputs": [
        {
          "name": "",
          "type": "address"
        }
      ],
      "payable": false,
      "stateMutability": "view",
      "type": "function",
      "signature": "0x3382c234"
    },
    {
      "constant": true,
      "inputs": [],
      "name": "getContractOwnerAddress",
      "outputs": [
        {
          "name": "",
          "type": "address"
        }
      ],
      "payable": false,
      "stateMutability": "view",
      "type": "function",
      "signature": "0xe0e7127a"
    }
  ],
  "bytecode": "0x608060405234801561001057600080fd5b5033600160006101000a81548173ffffffffffffffffffffffffffffffffffffffff021916908373ffffffffffffffffffffffffffffffffffffffff160217905550611088806100616000396000f3fe6080604052600436106100db576000357c0100000000000000000000000000000000000000000000000000000000900463ffffffff16806312c555de146100e05780632b37292a146101de5780633382c2341461022d57806334f0099e146102a857806339856060146102f7578063415b78c21461034a57806389bfa221146103fe578063b158db5514610451578063d02d2a79146104a0578063dabfd3791461051b578063dce37ddb1461056e578063dcf10dc3146105bd578063df058b7c14610610578063e0e7127a14610663578063efa8c897146106ba575b600080fd5b3480156100ec57600080fd5b506101c46004803603608081101561010357600080fd5b810190808035906020019092919080359060200190929190803590602001909291908035906020019064010000000081111561013e57600080fd5b82018360208201111561015057600080fd5b8035906020019184600183028401116401000000008311171561017257600080fd5b91908080601f016020809104026020016040519081016040528093929190818152602001838380828437600081840152601f19601f820116905080830192505050505050509192919290505050610700565b604051808215151515815260200191505060405180910390f35b3480156101ea57600080fd5b506102176004803603602081101561020157600080fd5b81019080803590602001909291905050506108f9565b6040518082815260200191505060405180910390f35b34801561023957600080fd5b506102666004803603602081101561025057600080fd5b8101908080359060200190929190505050610918565b604051808273ffffffffffffffffffffffffffffffffffffffff1673ffffffffffffffffffffffffffffffffffffffff16815260200191505060405180910390f35b3480156102b457600080fd5b506102e1600480360360208110156102cb57600080fd5b8101908080359060200190929190505050610957565b6040518082815260200191505060405180910390f35b34801561030357600080fd5b506103306004803603602081101561031a57600080fd5b81019080803590602001909291905050506109c8565b604051808215151515815260200191505060405180910390f35b34801561035657600080fd5b506103836004803603602081101561036d57600080fd5b8101908080359060200190929190505050610a22565b6040518080602001828103825283818151815260200191508051906020019080838360005b838110156103c35780820151818401526020810190506103a8565b50505050905090810190601f1680156103f05780820380516001836020036101000a031916815260200191505b509250505060405180910390f35b34801561040a57600080fd5b506104376004803603602081101561042157600080fd5b8101908080359060200190929190505050610ad9565b604051808215151515815260200191505060405180910390f35b34801561045d57600080fd5b5061048a6004803603602081101561047457600080fd5b8101908080359060200190929190505050610b05565b6040518082815260200191505060405180910390f35b3480156104ac57600080fd5b506104d9600480360360208110156104c357600080fd5b8101908080359060200190929190505050610b29565b604051808273ffffffffffffffffffffffffffffffffffffffff1673ffffffffffffffffffffffffffffffffffffffff16815260200191505060405180910390f35b34801561052757600080fd5b506105546004803603602081101561053e57600080fd5b8101908080359060200190929190505050610b6b565b604051808215151515815260200191505060405180910390f35b34801561057a57600080fd5b506105a76004803603602081101561059157600080fd5b8101908080359060200190929190505050610cb2565b6040518082815260200191505060405180910390f35b3480156105c957600080fd5b506105f6600480360360208110156105e057600080fd5b8101908080359060200190929190505050610cd1565b604051808215151515815260200191505060405180910390f35b34801561061c57600080fd5b506106496004803603602081101561063357600080fd5b8101908080359060200190929190505050610d00565b604051808215151515815260200191505060405180910390f35b34801561066f57600080fd5b50610678610dff565b604051808273ffffffffffffffffffffffffffffffffffffffff1673ffffffffffffffffffffffffffffffffffffffff16815260200191505060405180910390f35b6106e6600480360360208110156106d057600080fd5b8101908080359060200190929190505050610e29565b604051808215151515815260200191505060405180910390f35b600061070b85610ad9565b15156108ec57610719610f35565b606060405190810160405280600073ffffffffffffffffffffffffffffffffffffffff168152602001428152602001600015158152509050610100604051908101604052808781526020018481526020018681526020018581526020018281526020014281526020013373ffffffffffffffffffffffffffffffffffffffff168152602001600115158152506000808881526020019081526020016000206000820151816000015560208201518160010190805190602001906107dd929190610f6f565b50604082015181600201556060820151816003015560808201518160040160008201518160000160006101000a81548173ffffffffffffffffffffffffffffffffffffffff021916908373ffffffffffffffffffffffffffffffffffffffff1602179055506020820151816001015560408201518160020160006101000a81548160ff021916908315150217905550505060a0820151816007015560c08201518160080160006101000a81548173ffffffffffffffffffffffffffffffffffffffff021916908373ffffffffffffffffffffffffffffffffffffffff16021790555060e08201518160080160146101000a81548160ff02191690831515021790555090505060019150506108f1565b600080fd5b949350505050565b6000806000838152602001908152602001600020600301549050919050565b600080600083815260200190815260200160002060080160009054906101000a900473ffffffffffffffffffffffffffffffffffffffff169050919050565b600080620151809050600061096b84610b05565b905060006001836001840381151561097f57fe5b0401905060008060008781526020019081526020016000206003015482029050600081600080898152602001908152602001600020600201540390508095505050505050919050565b600080600083815260200190815260200160002060080160149054906101000a900460ff168015610a1b575060008083815260200190815260200160002060040160020160009054906101000a900460ff165b9050919050565b60606000808381526020019081526020016000206001018054600181600116156101000203166002900480601f016020809104026020016040519081016040528092919081815260200182805460018160011615610100020316600290048015610acd5780601f10610aa257610100808354040283529160200191610acd565b820191906000526020600020905b815481529060010190602001808311610ab057829003601f168201915b50505050509050919050565b600080600083815260200190815260200160002060080160149054906101000a900460ff169050919050565b60008060008381526020019081526020016000206004016001015442039050919050565b600080600083815260200190815260200160002060040160000160009054906101000a900473ffffffffffffffffffffffffffffffffffffffff169050919050565b6000610b76826109c8565b8015610be257503373ffffffffffffffffffffffffffffffffffffffff1660008084815260200190815260200160002060080160009054906101000a900473ffffffffffffffffffffffffffffffffffffffff1673ffffffffffffffffffffffffffffffffffffffff16145b1515610bea57fe5b606060405190810160405280600073ffffffffffffffffffffffffffffffffffffffff1681526020014281526020016000151581525060008084815260200190815260200160002060040160008201518160000160006101000a81548173ffffffffffffffffffffffffffffffffffffffff021916908373ffffffffffffffffffffffffffffffffffffffff1602179055506020820151816001015560408201518160020160006101000a81548160ff02191690831515021790555090505060019050919050565b6000806000838152602001908152602001600020600201549050919050565b600080600083815260200190815260200160002060040160020160009054906101000a900460ff169050919050565b6000610d0b82610ad9565b8015610d1d5750610d1b826109c8565b155b15610df557600080838152602001908152602001600020600080820160009055600182016000610d4d9190610fef565b6002820160009055600382016000905560048201600080820160006101000a81549073ffffffffffffffffffffffffffffffffffffffff021916905560018201600090556002820160006101000a81549060ff0219169055505060078201600090556008820160006101000a81549073ffffffffffffffffffffffffffffffffffffffff02191690556008820160146101000a81549060ff0219169055505060019050610dfa565b600080fd5b919050565b6000600160009054906101000a900473ffffffffffffffffffffffffffffffffffffffff16905090565b6000610e3482610ad9565b1580610e455750610e44826109c8565b5b80610e6457506000808381526020019081526020016000206002015434105b15610e6e57600080fd5b6060604051908101604052803373ffffffffffffffffffffffffffffffffffffffff1681526020014281526020016001151581525060008084815260200190815260200160002060040160008201518160000160006101000a81548173ffffffffffffffffffffffffffffffffffffffff021916908373ffffffffffffffffffffffffffffffffffffffff1602179055506020820151816001015560408201518160020160006101000a81548160ff02191690831515021790555090505060019050919050565b606060405190810160405280600073ffffffffffffffffffffffffffffffffffffffff168152602001600081526020016000151581525090565b828054600181600116156101000203166002900490600052602060002090601f016020900481019282601f10610fb057805160ff1916838001178555610fde565b82800160010185558215610fde579182015b82811115610fdd578251825591602001919060010190610fc2565b5b509050610feb9190611037565b5090565b50805460018160011615610100020316600290046000825580601f106110155750611034565b601f0160209004906000526020600020908101906110339190611037565b5b50565b61105991905b8082111561105557600081600090555060010161103d565b5090565b9056fea165627a7a723058208aef97265bbd5d60eb53793cba77b58661699153a572f8f5b25063e7629ec3320029",
  "source": "pragma solidity ^0.5.0;\n\ncontract RentableObjects {\n\n  struct Client {\n    address cliAddress;\n    uint since;\n    bool exists;\n  }\n  struct Object {\n    uint objId;\n    string description;\n    uint deposit;\n    uint pricePerDay;\n    Client client;\n    uint created;\n    address owner;\n    bool exists;\n  }\n  mapping (uint => Object) objects;\n  address owner;\n  \n  constructor () public {\n    owner = msg.sender;\n  }\n  \n  function registerObject(uint _objId, uint _deposit, uint _pricePerDay, string memory _descr) public returns (bool) {\n    if ( !(objectIsRegistered(_objId)) ) {\n      Client memory nilClient = Client({cliAddress: address(0x0), since: now, exists: false});\n      objects[_objId] = Object({objId: _objId, description: _descr, deposit: _deposit, pricePerDay: _pricePerDay, client: nilClient, created: now, owner: msg.sender, exists: true});\n      return true;\n    }\n    revert();\n  }\n  \n  function unregisterObject(uint _objId) public returns (bool) {\n    if ( objectIsRegistered(_objId) && !(objectIsRented(_objId)) ) {\n      delete objects[_objId];\n      return true;\n    }\n    revert();\n  }\n  function rentObject(uint _objId) public payable returns (bool) {\n    if ( !(objectIsRegistered(_objId)) || objectIsRented(_objId) || msg.value < objects[_objId].deposit) {\n      revert();\n    }\n    // add client to object\n    objects[_objId].client = Client({cliAddress: msg.sender, since: now, exists: true});\n    \n    //if ( !objects[_objId].client.cliAddress.send(msg.value - objects[_objId].deposit) ) {\n    //  revert();\n    //}\n    return true;\n  }\n\n  \n  function reclaimObject(uint _objId) public returns (bool) {\n    assert ( objectIsRented(_objId) && objects[_objId].owner == msg.sender );\n\n   //uint returnDeposit = getReturnDeposit(_objId);\n    //if ( !objects[_objId].owner.send(objects[_objId].deposit - returnDeposit) ) {\n      //revert();\n    //}\n    //if ( !objects[_objId].client.cliAddress.send(returnDeposit) ) {\n      //revert();\n    //}\n    objects[_objId].client = Client({cliAddress: address(0x0), since: now, exists: false});\n    return true;\n  }\n\nfunction objectIsRegistered(uint _objId) public view returns (bool) {\n    return objects[_objId].exists;\n  }\n\nfunction objectIsRented(uint _objId) public view returns (bool) {\n    return objects[_objId].exists && objects[_objId].client.exists;\n  }\n\nfunction getReturnDeposit(uint _objId) public view returns (uint) {\n    uint day = 86400;\n    uint clientTime = getObjectClientTime(_objId);\n    uint daysRented = ( (clientTime - 1) / day ) + 1;\n    uint rentalCost = daysRented * objects[_objId].pricePerDay;\n    uint returnDeposit = objects[_objId].deposit - rentalCost;\n    return returnDeposit;\n  }\n  function getObjectDeposit(uint _objId) public view returns (uint) {\n    return objects[_objId].deposit;\n  }\n  \n  function getObjectPricePerDay(uint _objId) public view returns (uint) {\n    return objects[_objId].pricePerDay;\n  }\n  \n  function getObjectDescription(uint _objId) public view returns (string memory) {\n    return objects[_objId].description;\n  }\n  \n  function getObjectClientExists(uint _objId) public view returns (bool) {\n    return objects[_objId].client.exists;\n  }\n  function getObjectClientTime(uint _objId) public view returns (uint) {\n    return now - objects[_objId].client.since;\n  }\n  \n  function getObjectClientAddress(uint _objId) public view returns (address) {\n    return objects[_objId].client.cliAddress;\n  }\n\nfunction getObjectOwnerAddress(uint _objId) public view returns (address) {\n    return objects[_objId].owner;\n  }\n  function getContractOwnerAddress() public view returns (address) {\n    return owner;\n  }\n//   function () public {\n//     revert();\n//   }\n  \n}\n",
  "sourcePath": "/home/shahrukh/btp/contracts/RentableObjects.sol",
  "compiler": {
    "name": "solc",
    "version": "0.5.0+commit.1d4f565a.Emscripten.clang"
  },
  "schemaVersion": "3.0.2",
  "updatedAt": "2019-04-16T10:11:04.905Z",
  "devdoc": {
    "methods": {}
  },
  "userdoc": {
    "methods": {}
  }
}